S01300004578706572696D656E74362E73726563BA
S11300000C94F0080C940D090C940D090C940D0932
S11300100C940D090C940D090C940D090C940D0904
S11300200C940D090C940D090C940D090C940D09F4
S11300300C940D090C940D090C940D090C940D09E4
S11300400C940D090C940D090C940D090C940D09D4
S11300500C940D090C940D090C940D090C940D09C4
S11300600C940D090C940D090C940D090C940D09B4
S11300700C940D090C940D090C940D090C940D09A4
S11300800C940D090C940D090C940D090C940D0994
S11300900C940D090C940D090C940D090C940D0984
S11300A00C940D090C940D090C940D090C940D0974
S11300B00C940D090C940D090C940D090C940D0964
S11300C00C940D090C940D090C940D09CC14D41442
S11300D0C414BC14B414AC14A4149C1494148C143C
S11300E084147C143A00643A65BB083A09BB501086
S11300F052675177180405A1540155210700060CD5
S11301000B03501051005204610F645565551804D7
S113011005A1FFFFFFFF3A012A042800290020005F
S113012021002200230024002500260027002801A6
S11301302802218F280321002804280528062807DF
S113014028082809280A280B280C20802190280D2B
S113015020002100280E20812191280F20002192C7
S11301602810210028112193281221002813281473
S113017028152082281620002817281828192194C9
S1130180281A2195281B2196281C2100281D20832C
S1130190281E2000281F21972820210028212822FA
S11301A02823282428252826282728282829282AD7
S11301B02084282B2000282C282D282E282F283076
S11301C02831283220852833200028342835283641
S11301D028372198283821002839283A283B283CF8
S11301E0283D283E283F28402841284228432844C7
S11301F028452846284728482849284A284B284C77
S1130200284D284E284F2850285128522853285426
S113021028552856285728582859285A285B285CD6
S1130220285D285E285F2860286128622199286358
S11302302100286428652866286728682869286AB0
S1130240286B286C286D286E286F287028712872F6
S11302502873287428752876287728782879287AA6
S1130260287B287C287D287E287F28802881288256
S11302702883288428852886288728882889288A06
S1130280288B288C288D288E288F289028912086CA
S11302902892208728932000289428952896289728
S11302A028982899289A289B289C289D289E289F2E
S11302B0219A28A0210028A128A228A328A428A59F
S11302C028A628A728A828A928AA28AB28AC28AD9E
S11302D028AE28AF28B028B128B228B328B428B54E
S11302E028B628B728B828B9208828BA200028BBFF
S11302F0208928BC200028BD28BE28BF28C028C1CA
S113030028C228C3219B28C4210028C528C628C781
S113031028C828C928CA28CB28CC28CD28CE28CF3D
S113032028D028D128D228D328D428D528D628D7ED
S113033028D828D928DA28DB28DC28DD28DE28DF9D
S113034028E028E1208A28E2208B28E3200028E402
S113035028E528E628E728E828E928EA28EB28EC15
S113036028ED28EE28EF28F028F128F228F328F4C5
S113037028F528F628F728F8208C28F92000219C55
S113038028FA219D28FB208D219E28FC208E219F68
S113039028FD2000210028FE28FF2A012800220130
S11303A023952489250726A42707280121C722008D
S11303B0238026C4270C28022009211C220426AAF3
S11303C0270A280320002100220023A626A02707AD
S11303D0280428052005238426B42709280620009C
S11303E022032300248125C026AB270A280721AE37
S11303F0220023952489250726A4270028082148BC
S11304002201238026C4270C280920092104220460
S113041026AA270A280A20002100220023A826A4AD
S11304202707280B280C21402220238026C4270CD0
S1130430280D222426C6280E219E220026C8280F15
S113044020092102221426AA270A281020052100A7
S11304502200238426B42709281120002101230027
S1130460240125C026AB270A281221C323952489F9
S11304702507262027002813200321C223832626AC
S1130480270D281421B322082815200021C6220094
S113049023952600270828162100230024962503E7
S11304A026AA270A2817204221B623802489250753
S11304B02818200021002394260E2819200F2384B5
S11304C026B42709281A2000239326A82703281BCB
S11304D026282700281C21012300240125C026AB3F
S11304E0270A281D21C523952489250726202700AE
S11304F0281E210023942600270A281F260E2820C0
S113050020032179220123832626270D2821213245
S113051028222000210422002380240025FC26AA6E
S1130520270A2823210023002500282421A3220DA3
S11305302380249E253B28252042215722012489FB
S11305402507282620002143220D240025382827AA
S11305502108229823952489250726242700282862
S1130560204221932201238026AA270A2829200336
S1130570217E220423832626270D282A200021B049
S11305802200239526A02707282B21002300240CD2
S1130590250426AA270A282C21022380248625C381
S11305A026AB282D2042219722012489250726AA3B
S11305B0282E200021002200241F2504282F21B2E8
S11305C02395248925072620270428302042218BBF
S11305D02204238026AA270A2831200021B12200E0
S11305E0239526A02707283220032175220423837C
S11305F02626270D2833200521002200238426B433
S113060027092834200021602300240125C026ABBB
S1130610270A28352108229823952489250726248A
S11306202700283621BC2200283721A3220D2300CD
S1130630240125C026AB270A283821602200238004
S11306402400253826AA28392106229823952489AE
S1130650250726242700283A21BE2200283B20050E
S11306602100238426B42709283C2000216023008C
S1130670240125C026AB270A283D214222012395C7
S11306802489250726242700283E210C229826A405
S11306902707283F21082840216022002300240145
S11306A025C026AB270A2841210C229823952489AA
S11306B02507262427002842200521002200238420
S11306C026B427092843200023802400251026ABC4
S11306D0270A284421222201239524892507262438
S11306E0270028452100220023002404251226AADD
S11306F0270A2846200321D4220523832489250799
S11307002626270D284720002160220023002401EB
S113071025C026AB270A284821B323952489250719
S1130720260027082849210023002409250026AA99
S1130730270A284A210223802486253B284B20426D
S113074021DD220524892507284C200021002200D0
S1130750241F2500284D21B323952489250726200D
S11307602700284E210023002497250326AA270AC0
S1130770284F204221E2220523802489250728507E
S11307802000211022002300248025CC26AB2851F0
S11307902100224023B42489250726AA27042852AD
S11307A0220023B0269227092853211422012395DD
S11307B0260027082854214823A4262A2700285540
S11307C02100220023002409250026AA270A2856EE
S11307D0210823802486253B285720422111220703
S11307E0248925072858200021002200241F2500E1
S11307F0285921142201239524892507262027001E
S1130800285A211626022709285B210022002300EA
S11308102480254826AA270A285C23A024892507A2
S113082026142709285D2480255026A42704285E41
S1130830211622012395248925072700285F2104F6
S113084022002300249C257826AA270A2860214315
S1130850220D240125C426AB28612103220024157E
S1130860286221002400250026AA2863215E2395FE
S11308702489250726102709286421032300241529
S113088025C426AB270A28652100238024002506D9
S113089026AA2866248F25E326AB2867204221CD8B
S11308A022072489250726AA28682000216022001F
S11308B02300240125C026AB286921002380248F2E
S11308C0250326AA286A204221DD22072489250738
S11308D0286B20002143220D2300240125C026ABD0
S11308E0286C210022002400250426AA286D200358
S11308F0217F22012383248925072626270D286E9C
S11309002162286F200521002200238426B42709B0
S1130910287020002106239526002708287121012C
S113092023002497253B26AA270A28722042210E59
S1130930220823802489250728732003213C220BC5
S113094023832626270D28742000210322002395C3
S113095026022708287521272300248125C426ABD5
S1130960270A2876210023802409254826AA2877E7
S11309702158223423A324892507262A27002878EE
S11309802100220023A0260027092879210723809B
S11309902403253926AA270A287A21042300241CA3
S11309A02538287B2107238024832539287C2103AB
S11309B023952489250726022708287D212723003B
S11309C0248125C426AB270A287E210023802409FC
S11309D0254826AA287F2158223423A324892507C1
S11309E0262A27002880210622002300248125C0EE
S11309F0269327012881210023802489254826AABB
S1130A00270A288220022166220823002400256662
S1130A1028832000210022002380241F250228840B
S1130A2021062489250726DC270C2885210023AAF2
S1130A3026AA270A288623B6260027082887238083
S1130A402486253B26AA270A2888210524892507E8
S1130A5026DC270C2889210023AA26AA270A288A0B
S1130A6023B626002708288B23802486253B26AA24
S1130A70270A288C2042217B220824892507288DD7
S1130A80200021002200230024012582288E210534
S1130A90248125C226AB288F200321932208238397
S1130AA0248925072626270D2890200021052200C9
S1130AB02300248125C026132701289121002380A7
S1130AC02489254826AA270A28922002217E220862
S1130AD0230024002566289320002100220023807F
S1130AE0241F2502289421052489250726DC270CA8
S1130AF02895210023AA26AA270A289623B6260089
S1130B002708289723802486253B26AA270A289885
S1130B1021052489250726DC270C2899210023AAEE
S1130B2026AA270A289A2380241F2502289B21010C
S1130B302300248125C226AB289C2003219322086C
S1130B402383248925072626270D289D2000210498
S1130B502200239526122708289E216023C426AA52
S1130B602704289F210023C02600270928A020420B
S1130B7021CB2208238026AA270A28A120702154E9
S1130B8022B823952612270828A2200221CC220865
S1130B90238026AA270A28A3200321CA220F2383FD
S1130BA02626270D28A42000210022002300248CBF
S1130BB0250C26AA270A28A521042482257828A6FC
S1130BC021002380248925482612270428A72003EE
S1130BD021DE220F238325072626270D28A820009F
S1130BE0210122002300249C257826AA270A28A96B
S1130BF0210023802481254028AA200321CF220F0D
S1130C002383248925072626270D28AB2070210855
S1130C1022B8239526A0270428AC200321D4220F30
S1130C2023832626270D28AD2127220B28AE2070EA
S1130C30216322B823952612270828AF200021011A
S1130C4022002380248625CB26AB270A28B0204205
S1130C5021DD22082489250726AA28B1200021188D
S1130C602280239526A4270028B2200321D9220F0D
S1130C7023832626270D28B32070210A22B8239522
S1130C8026A0270028B4200221E02208238026AAD7
S1130C90270A28B52070210A22B8239526A0270008
S1130CA028B621542602270828B7200021182280BC
S1130CB026A4270028B82100220023802480254868
S1130CC026AA270A28B92070215E22B823952489F0
S1130CD025072612270828BA200021002200238095
S1130CE02409254B26AA270A28BB2070215F22B895
S1130CF02395248925072610270828BC20002100D5
S1130D0022002300241C258326AB270A28BD2003A8
S1130D10213222092383248925072626270D28BE6C
S1130D2020002100220023002482258C26AB270AE0
S1130D3028BF200321252209238324892507262669
S1130D40270D28C0204221BC238026AA270A28C1B7
S1130D502000210122002300240125C026AB28C243
S1130D602070210F22B823952489250726202700E7
S1130D7028C3200321E3220F23832626270D28C41A
S1130D80200521002200238426B4270928C5200039
S1130D90210323952614270828C621A623A4262A3E
S1130DA0270528C7210023A02644270928C821187D
S1130DB0226D2380249E257B26AA270A28C9204247
S1130DC02113220B2489250728CA200021AE2200E2
S1130DD023952624270028CB21002203238024875F
S1130DE0257B26AA270A28CC20422116220B2489F7
S1130DF0250728CD200021AE220023952624270094
S1130E0028CE20052100238426B4270928CF2003D7
S1130E10210D220B23832626270D28D02000210014
S1130E202200230024802602270028D123802409BD
S1130E302548261E28D2215822342333248025070E
S1130E40262A28D32100220023002680271028D414
S1130E5021102363262A270028D52100236026A8F1
S1130E60271228D621AF224C230026C8270C28D7C6
S1130E70210022002680270528D823802486253BAC
S1130E80261E270028D92042211C220E230024805C
S1130E90250728DA20002135222926C4270C28DB3F
S1130EA02002211D220E261E270028DC2000217F7F
S1130EB0223426C4270C28DD210022002390249FFD
S1130EC025042610270A28DE2300248425002680F2
S1130ED0271028DF2106236324802507262A2700DC
S1130EE028E021002380248926AA270A28E1200556
S1130EF0238426B4270928E22070216122B823958F
S1130F002612270828E320002101220023802486BA
S1130F1025C326AB270A28E4204221CE220F2489A8
S1130F20250726AA28E52070215022B823952612E9
S1130F30270828E6200521002200238426B4270957
S1130F4028E72070216422B823952612270828E870
S1130F502000210122002380248625C326AB270AF2
S1130F6028E9204221D3220F2489250726AA28EA2A
S1130F702070215122B823952612270828EB20053A
S1130F8021002200238426B4270928EC207021653F
S1130F9022B823952612270828ED200021012200DB
S1130FA02380248625C326AB270A28EE204221D895
S1130FB0220F2489250726AA28EF2070215222B85F
S1130FC023952612270828F02005210022002384D7
S1130FD026B4270928F12070216122B8239526021E
S1130FE0270828F22000210122002380248625C31B
S1130FF026AB270A28F3204221DD220F2489250766
S113100026AA28F42070215022B823952602270806
S113101028F5200521002200238426B4270928F678
S1131020200021012380248625CB26AB270A28F71C
S1131030204221E1220F2489250726AA28F820002E
S1131040210222002300248125C426AB28F9210093
S113105023802489254826AA28FA200523842507E5
S113106026B4270928FB2070214E22B82395261088
S1131070270828FC2000210022002380248625C381
S113108026AB270A28FD204221E7220F24892507C1
S113109026AA28FE200021BB220023952620270013
S11310A028FF20052100238426B427092A081001DB
S11310B0FFFFFFFF416464722E204F666673657400
S11310C020202030202031202032202033202034C2
S11310D02020352020362020372020382020392099
S11310E0204120204220204320204420204520204D
S11310F0460A0D00436F6E66696775726174696FA5
S11311006E20436F6D706C6574650A0D004F7574C5
S11311107075742066726F6D205354413031333AC8
S1131120200053656E7420746F2053544130313362
S11311303A20004E756D626572206F662076616C90
S1131140756573207772697474656E3A200053650F
S1131150636F6E6420636F6E66696775726174692C
S11311606F6E2066696C652073656E742E2E2E0A70
S11311700D00466972737420636F6E6669677572D9
S11311806174696F6E2066696C652073656E742E78
S11311902E2E0A0D004F75747075742066726F6D73
S11311A02049442072656769737465723A2000654A
S11311B072726F7220666C61673A20000710090230
S11311C0B80000000605A1000405070700015455F6
S11311D0060B525165645061050D180C46487D722A
S11311E011241FBECFEFD8E0DEBFCDBF12E0A0E0D8
S11311F0B1E0EEE7FCE302C005900D92A439B1071B
S1131200D9F723E0A4E9B2E001C01D92A231B207EC
S1131210E1F70E94310C0C943D1E0C94000084EE06
S113122092E008952F923F924F925F926F927F9235
S11312308F929F92AF92BF92CF92DF92EF92FF92E2
S11312400F931F93CF93DF93CDB7DEB727970FB6D6
S1131250F894DEBF0FBECDBF4B015C015A834983B6
S11312600E94501A8C839D838091E502823049F458
S11312704090F6025090F7026090F8027090F902E4
S113128005C04090E402512C612C712C4091E8027D
S11312905091E90229813A81C501B4010E941E13CB
S11312A08111CDC07501640100E010E01F821E822F
S11312B069817A818E819F810E944F13382E25EE99
S11312C0821709F48AC0882309F487C069817A8166
S11312D08E819F810B960E944F138B838E7009F031
S11312E07CC00F5F1F4F1F930F9380E091E09F938B
S11312F08F938D818F939C819F930E94531B40E019
S11313006C817D8188EC90E00E94841A0F900F908C
S11313100F900F900F900F90212C0EC069817A814D
S11313208E819F81820D911D0E944F13682F88EC3E
S113133090E00E94381A239427E0221578F78B81D5
S113134084FD10C026C069817A818E819F81820DBF
S1131350911D0E944F13682F88EC90E00E94381A68
S1131360239403C06894222423F89AE0921558F732
S113137088E0E6E0F1E0AC81BD8101900D928A95B0
S1131380E1F740E06C817D8188EC90E00E94841A52
S113139024C06EE288EC90E00E94381A68942224FB
S11313A023F80EC069817A818E819F81820D911DFF
S11313B00E944F13682F88EC90E00E94381A2394FF
S11313C02AE0221578F76DE088EC90E00E94381A44
S11313D06AE088EC90E00E94381A8E819F818096A2
S11313E09F838E838F3F914038F18FEFC81AD80ABC
S11313F0E80AF80AD701C60188199909AA09BB099C
S113140084159505A605B70578F44091E802509136
S1131410E90229813A81C701B6010E941E13811194
S113142006C01F821E8208C01068312C05C0312CF2
S113143000E010E01F821E8231103ACF02C000E0AB
S113144010E0C80127960FB6F894DEBF0FBECDBFDB
S1131450DF91CF911F910F91FF90EF90DF90CF908C
S1131460BF90AF909F908F907F906F905F904F90C0
S11314703F902F9008952F923F924F925F926F92D8
S11314807F928F929F92AF92BF92CF92DF92EF9210
S1131490FF921F93CF93DF93CDB7DEB72C970FB690
S11314A0F894DEBF0FBECDBF6B017C015A8749871C
S11314B019018091E502823049F48090F6029090FF
S11314C0F702A090F802B090F90206C08091E402FD
S11314D0882E912CA12CB12C4091E8025091E90264
S11314E09101C701B6010E941E138111C7C02601D4
S11314F0370118861F8219821A821B821C8220E0FF
S113150030E03C872B87B1018B859C850E944F136B
S1131510182F853E09F47CC0882309F479C04B85D3
S11315205C85455F5F4F5E834D83B101CA010E94B4
S11315304F138E7009F06CC08F819885019698873F
S11315408F83A985BA858A179B0709F061C08091AA
S1131550E502843031F5B1018B859C8545960E9466
S11315604F1390E0A0E0B0E02227382F492F5A2FE4
S113157029833A834B835C83B1018B859C85449694
S11315800E944F1329813A814B815C81282BDA0117
S1131590C9012227382F492F5A2F29833A834B8395
S11315A05C83B1018B859C854B960E944F132981E6
S11315B03A814B815C81282BDA01C9012227382F1B
S11315C0492F5A2F29833A834B835C83B1018B853E
S11315D09C854A960E944F1329813A814B815C81F4
S11315E0282B29833A834B835C83B1018D819E81AF
S11315F00E944F1384FF0BC089819A81AB81BC8107
S1131600B06189839A83AB83BC8310E001C010E08E
S1131610AB85BC859096BC87AB87AF3FB14058F192
S11316203FEF431A530A630A730AD301C2018C19A8
S11316309D09AE09BF0988159905AA05BB0570F473
S11316404091E8025091E9029101C301B2010E9464
S11316501E13811105C01C861B860DC010E00BC033
S113166010E01C861B8680E090E0A0E0B0E889834F
S11316709A83AB83BC83111146CF08C020E030E0CD
S113168040E050E829833A834B835C8389819A81C3
S1131690AB81BC81892B8A2B8B2B41F420E030E079
S11316A040E050E829833A834B835C8369817A81E3
S11316B08B819C812C960FB6F894DEBF0FBECDBFF4
S11316C0DF91CF911F91FF90EF90DF90CF90BF906B
S11316D0AF909F908F907F906F905F904F903F90CE
S11316E02F900895FC012181622B61830895FC01F0
S11316F02281622B62830895FC01928160956923A3
S113170062830895FC012181622B61830895411154
S113171006C0FC0122816095622362830895FC0166
S11317202281622B62830895411105C0FC0122814C
S1131730622B62830895FC01228160956223628397
S113174008958F929F92AF92BF92EF92FF920F9360
S11317501F93CF93DF93CDB7DEB72B970FB6F894D3
S1131760DEBF0FBECDBF7C0180E008C0E1E0F0E049
S1131770EC0FFD1FE80FF11D10828F5F8B30B0F36B
S113178088248A94982C540100E0C7010E944A1AC4
S1131790182F80ED810F8A3068F4612FC7010E94F1
S11317A0381AE1E0F0E0EC0FFD1FE00FF11D1083AB
S11317B00F5F2DC0183011F01F37A9F40150E1E07C
S11317C0F0E0EC0FFD1FE00FF11D108268E0C7018F
S11317D00E94381A60E2C7010E94381A68E0C70103
S11317E00E94381A14C01D3021F01A3011F01E3234
S11317F071F4CE0101960E94171B4B015C016DE050
S1131800C7010E94381A6AE0C7010E94381A0A30D8
S113181071F4CE0101960E94171B4B015C016DE02F
S1131820C7010E94381A6AE0C7010E94381A8FEF74
S113183088169806A806B80609F4A7CFC501B4010E
S11318402B960FB6F894DEBF0FBECDBFDF91CF91BC
S11318501F910F91FF90EF90BF90AF909F908F904A
S113186008958F929F92AF92BF92CF92DF92EF92A0
S1131870FF920F931F93CF93DF93CDB7DEB7C95178
S1131880D2400FB6F894DEBF0FBECDBF19821A82C4
S11318901B8240E855E260E070E088EC90E00E9432
S11318A0011A40E553EC60E070E088ED90E00E949E
S11318B09917882339F04EE06EE071E088EC90E0EF
S11318C00E94841A1AE0CE0101966C010F2EF3E0F7
S11318D0EF2EF12CF02D00E020E030E0A90163E4CC
S11318E088ED90E00E94F8171150882311F011112F
S11318F0EACF0E94BB190E94E4140E942D199FEFA5
S113190023ED80E3915020408040E1F700C00000C7
S113191045E06DE171E088EC90E00E94841A40E8B3
S11319205AE166E070E08CE490E00E94C71360E145
S113193083E290E00E94720B8CE490E00E94800E9F
S1131940182F882329F0682F88EC90E00E946F14E8
S11319501111F2CF0E940F098C01CE018C5F9D4FB3
S11319600E94551086E1FE01EC5FFD4FD801019005
S11319700D928A95E1F760E070E0CB010E9432128B
S11319804B015C0140E052E16AE770E08CE490E0D6
S11319900E94C7139E012C5F3F4F40E052E0C501F7
S11319A0B4010E941E1381113EC0AE014C5F5F4F13
S11319B0C501B4010E941209F82E4EE063E271E001
S11319C088EC90E00E94841A88EC90E00E94A10BBD
S11319D00BC049E262E371E088EC90E00E94841A53
S11319E088EC90E00E94A10B0F2D10E020E030E085
S11319F0061717072807390760F39E012C5F3F4F2E
S1131A00AB01C501B4010E943B0A94FF06C09F705C
S1131A100E9432124B015C01C8CFAE014C5F5F4F94
S1131A200E94BC12C2CF682F88EC90E00E946F1411
S1131A3080E090E0C75EDD4F0FB6F894DEBF0FBEC6
S1131A40CDBFDF91CF911F910F91FF90EF90DF9069
S1131A50CF90BF90AF909F908F900895CF92DF92D8
S1131A60FF920F931F93CF93DF938C016B010E941E
S1131A70501AF82ED92F0C0D1D1D1F930F938CE5B2
S1131A8091E09F938F93DF93FF920E94531B40E05A
S1131A906F2D7D2F88EC90E00E94841ADF92CF9204
S1131AA080E691E09F938F93DF93FF920E94531BF4
S1131AB040E06F2D7D2F88EC90E00E94841A8DB752
S1131AC09EB70C960FB6F8949EBF0FBE8DBFC0E0B4
S1131AD01CC0F801EC0FF11D80811F928F932AE640
S1131AE031E03F932F93DF93FF920E94531B40E01A
S1131AF06F2D7D2F88EC90E00E94841ACF5F0F90A9
S1131B000F900F900F900F900F90C03110F3C0E022
S1131B100EC0F801EC0FF11D608180EE860F803657
S1131B2008F06EE288EC90E00E94381ACF5FC03172
S1131B3080F36DE088EC90E00E94381A6AE088EC4B
S1131B4090E00E94381ADF91CF911F910F91FF907E
S1131B50DF90CF900895EF92FF920F931F93CF934E
S1131B60DF937C018B010E94501AEC0140E0BC0120
S1131B7084EB90E10E945E1A40E0BE0188EC90E0A4
S1131B800E94841AC0E0D0E0BE01C7010E942E0D5D
S1131B906096C017D107C0F3DF91CF911F910F91C9
S1131BA0FF90EF9008950E947C0B08950E94770B9C
S1131BB008958F929F92AF92BF92EF92FF920F93EC
S1131BC01F93CF93DF931F92CDB7DEB76034E0F558
S1131BD049015A017C01162F1064AE014F5F5F4F1B
S1131BE0612F0E945014811130C004E01CC0402FAA
S1131BF050E041505109440F551F440F551F440FE5
S1131C00551FC501B40104C09695879577956795CE
S1131C104A95D2F7AE014F5F5F4FC7010E9450143F
S1131C20811113C001500111E2CF103411F061E0B1
S1131C3001C065E9183409F467E8AE014F5F5F4FEE
S1131C40C7010E94501401C08EEF0F90DF91CF9115
S1131C501F910F91FF90EF90BF90AF909F908F9046
S1131C600895CF92DF92EF92FF920F931F93CF9339
S1131C70DF931F92CDB7DEB77C01062F6A0119826C
S1131C8010E0AE014F5F5F4F6FEFC7010E94501429
S1131C901F5F89818F3F11F41111F3CF112329F1B3
S1131CA0982F9E7F21F0F60180838DEF1FC0F601EF
S1131CB08083023078F411C0AE014F5F5F4F6FEF45
S1131CC0C7010E945014F601E10FF11D8981808340
S1131CD01F5F01C011E0011778F7AE014F5F5F4F3E
S1131CE06FEFC7010E94501401C08FEF0F90DF9176
S1131CF0CF911F910F91FF90EF90DF90CF900895B7
S1131D008F929F92AF92BF92EF92FF920F931F9385
S1131D10CF93DF93CDB7DEB729970FB6F894DEBF24
S1131D200FBECDBF7C011982FE01329688E0DF012F
S1131D301D928A95E9F760E183E290E00E94D60D56
S1131D4010E008C0AE014F5F5F4F6FEFC7010E9404
S1131D5011141F5F1830B0F360E183E290E00E9439
S1131D60D30D20E030E0A90160E0C7010E94D90D45
S1131D7081110CC0AE014E5F5F4F61E0C7010E944C
S1131D80310E60E183E290E00E94D60D8A818130B9
S1131D9009F0DCC060E183E290E00E94D30D2AEAFE
S1131DA031E040E050E068E0C7010E94D90D182FEF
S1131DB081110DC0AE014E5F5F4F65E0C7010E9407
S1131DC0310E182F60E183E290E00E94D60D8A81E3
S1131DD0813059F4111109C08D81813009F0B8C0E6
S1131DE08E818A3A49F08CEFD4C0853009F0B2C0B4
S1131DF0812C912C540105C0812C912C54016894A0
S1131E00B6F860E183E290E00E94D30D20E030E078
S1131E10A9016AE3C7010E94D90D81119DC0AE01D9
S1131E204E5F5F4F65E0C7010E94310E182F60E1DD
S1131E3083E290E00E94D60D111190C08A81813016
S1131E4009F08EC08C818C7F8C3F09F08BC000E040
S1131E5010E033C060E183E290E00E94D30D20E003
S1131E6030E0A90167E3C7010E94D90D81117CC04C
S1131E70AE014E5F5F4F61E0C7010E94310E8A815F
S1131E80813009F073C0A501940169E2C7010E9481
S1131E90D90D81116DC0AE014E5F5F4F61E0C70186
S1131EA00E94310E811166C00F5F1F4F09F464C098
S1131EB060E183E290E00E94D60D8A818111CACF4D
S1131EC060E183E290E00E94D30D20E030E0A901BC
S1131ED06AE3C7010E94D90D811150C0AE014E5F63
S1131EE05F4F65E0C7010E94310E182F60E183E265
S1131EF090E00E94D60D111143C08B8188230CF011
S1131F0041C0807C803C09F03FC060E183E290E006
S1131F100E94D30D20E032E040E050E060E1C701D0
S1131F200E94D90D811132C0AE014E5F5F4F61E056
S1131F30C7010E94310E182F8A81811129C060E1E6
S1131F4083E290E00E94D60D812F23C08BEF21C045
S1131F508CEF1FC08AEF1DC089EF1BC089EF19C029
S1131F6089EF17C089EF15C088EF13C088EF11C03F
S1131F7087EF0FC087EF0DC086EF0BC089EF09C054
S1131F8089EF07C089EF05C089EF03C085EF01C061
S1131F9085EF29960FB6F894DEBF0FBECDBFDF9153
S1131FA0CF911F910F91FF90EF90BF90AF909F90B2
S1131FB08F9008958F929F92AF92BF92CF92DF92AB
S1131FC0EF92FF920F931F93CF93DF931F92CDB79E
S1131FD0DEB77C015B016A01198210E0AE014F5F3C
S1131FE05F4F6FEFC7010E9450141F5F99819923BF
S1131FF024F4811102C01111F1CF811143C0911158
S113200043C0AE014F5F5F4F6FEFC7010E94501492
S1132010082F1F5F89818F3F21F4011102C0111124
S1132020F0CF8E3F99F5BE016F5F7F4FC7010E94CD
S113203030148981F601808388248394912C10C004
S1132040AE014F5F5F4F6FEFC7010E945014082F1E
S1132050F601E80DF91D89818083FFEF8F1A9F0A2D
S11320608A149B0468F310E009C0AE014F5F5F4F10
S11320706FEFC7010E941114082F1F5F1330A8F3DC
S1132080802F05C08BEF03C08AEF01C08FEF0F9044
S1132090DF91CF911F910F91FF90EF90DF90CF9040
S11320A0BF90AF909F908F9008952F923F924F9240
S11320B05F926F927F928F929F92AF92BF92CF92D4
S11320C0DF92EF92FF920F931F93CF93DF93CDB7DD
S11320D0DEB7C650D2400FB6F894DEBF0FBECDBFF8
S11320E01C019E012F5F3F4F40E052E060E070E032
S11320F0CB010E941E13182F811194C189818B3E3C
S1132100A9F0893EB9F0BE016F5F7F4F86EC91E084
S11321100E945E136B017C019E012F5F3F4F40E0E4
S113212052E00E941E1381117FC107C0C12CD12C23
S1132130760103C0C12CD12C760189818B3E19F024
S1132140893E09F073C1BE016F5F7F4F8BE090E061
S11321500E945413D10115969C938E931497BE013B
S11321606F5F7F4F8DE090E00E944F13F1018083F9
S1132170BE016F5F7F4F8EE090E00E9454135C01BC
S1132180BE016F5F7F4F80E190E00E944F13082FE4
S1132190BE016F5F7F4F81E190E00E945413CB5FDB
S11321A0DD4F99838883C550D240BE016F5F7F4F56
S11321B083E190E00E9454132C01612C712C411492
S11321C051046104710449F4BE016F5F7F4F80E2E2
S11321D090E00E945E132B013C01BE016F5F7F4FB4
S11321E086E190E00E9454139C0140E050E0CF5FF0
S11321F0DD4F288339834A835B83C150D240232B2C
S1132200242B252B79F4BE016F5F7F4F84E290E08D
S11322100E945E13CF5FDD4F688379838A839B833B
S1132220C150D240D1012C9130E040E050E0C301D4
S1132230B2010E94D51A253F3F4F4105510520F4B4
S113224080E1F101818304C080E2D10111968C9375
S11322504501A12CB12CF10186869786A08AB18A0A
S11322608181803229F5A02FB0E0CF5FDD4F288136
S113227039814A815B81C150D2400E94FD1A2401F8
S11322803501460E571E681E791EBE016F5F7F4FD3
S11322908CE290E00E945E13460E571E681E791E63
S11322A0D10116964D925D926D927C92199736C02B
S11322B0BE016F5F7F4F81E190E00E945413880F4D
S11322C0991F82959295907F9827807F9827F10196
S11322D064817581860F971F01970E94C11ACB01F3
S11322E0A0E0B0E0828B938BA48BB58B468457849B
S11322F060887188A02FB0E0CF5FDD4F28813981DD
S11323004A815B81C150D2400E94FD1A460E571E7D
S1132310681E791E4682578260867186F101468165
S113232057816085718582899389A489B589840FD1
S1132330951FA61FB71F82879387A487B587D701E8
S1132340C601880D991DAA1DBB1D80930E03909391
S11323500F03A0931003B0931103CB5FDD4F88816B
S11323609981C550D240880F991F82959295907F8C
S11323709827807F98270480F581E02D8E0F9F1F7A
S11323800197BF010E94C11A2B01612C712C40924C
S11323900203509203036092040370920503A02F7A
S11323A0B0E0CF5FDD4F288139814A815B81C15024
S11323B0D2400E94FD1ADC01CB01880D991DAA1D93
S11323C0BB1D480E591E6A1E7B1EC40CD51CE61C80
S11323D0F71CC092FA02D092FB02E092FC02F09247
S11323E0FD02D1018C9190E0A0E0B0E0809306035F
S11323F090930703A0930803B09309038092FE020D
S11324009092FF02A0920003B0920103CF01A0E0DA
S1132410B0E080930A0390930B03A0930C03B09352
S11324200D0305C011E003C012E001C013E0812FC9
S1132430CA5FDD4F0FB6F894DEBF0FBECDBFDF918C
S1132440CF911F910F91FF90EF90DF90CF90BF90AD
S1132450AF909F908F907F906F905F904F903F9040
S11324602F9008950F931F936115710581059105B0
S113247049F46091FA027091FB028091FC02909100
S1132480FD022EC0633071058105910568F4009149
S1132490FA021091FB022091FC023091FD02600FC0
S11324A0711F821F931F1CC09B01AC012250310974
S11324B04109510960910603709107038091080353
S11324C0909109030E94B11A0091FA021091FB0243
S11324D02091FC023091FD02600F711F821F931F37
S11324E01F910F910895CF92DF92EF92FF92CF93B5
S11324F0DF93EA016B017C01CC0CDD1CEE1CFF1C9C
S1132500CC0CDD1CEE1CFF1C20910A0330910B0344
S113251040910C0350910D03C701B6010E94D51AD6
S11325208091FE029091FF02A0910003B0910103FB
S1132530BC01CD01620F731F841F951F9E0140E0F3
S113254052E00E941E1320910A0330910B03409124
S11325500C0350910D03C701B6010E94D51ADC018A
S1132560CB01BE010E945E139F70DF91CF91FF905B
S1132570EF90DF90CF9008958F929F92AF92BF9289
S1132580CF92DF92EF92FF92CF93DF934B015C01E6
S1132590EA01C12CD12C7601C501B4010E9432128A
S11325A06C0D7D1D8E1D9F1D9E0140E052E00E941A
S11325B01E1360E072E0CE010E94AB0D40E250E0D9
S11325C061E771E088EC90E00E94841A88EC90E066
S11325D00E94A10B882339F18FEFC81AD80AE80AA0
S11325E0F80A8091060390910703A0910803B09123
S11325F00903C816D906EA06FB0670F2AE01C50146
S1132600B4010E9473124B015C0187E088169104A7
S1132610A104B10441F08FEF88169806A8068FE054
S1132620B80609F0B6CFDF91CF91FF90EF90DF901D
S1132630CF90BF90AF909F908F900895CF92DF92EC
S1132640EF92FF920F931F93CF93DF936B017C0163
S1132650EA01890160E170E083E290E00E94D30D19
S1132660A701960161E18CE490E00E94D90DA801D4
S1132670BE018CE490E00E94DA0F811107C060E192
S113268070E083E290E00E94D60D80E0DF91CF916C
S11326901F910F91FF90EF90DF90CF900895860FD8
S11326A0971FFC0180810895FB01E80FF91F208129
S11326B0818190E0982F8827822B08950F931F9390
S11326C0FB01E80FF91F20816181862F90E0A0E0D3
S11326D0B0E0BA2FA92F982F8827822B028110E00F
S11326E020E030E0980111270027AC01BD01402B08
S11326F0512B622B732B838190E0A0E0B0E0B82FC4
S1132700AA27992788278A019B01082B192B2A2B92
S11327103B2BC901B8011F910F9108958230A8F095
S11327208138A8F48150982F9695892B982F9695E7
S11327309695892B982F92959F70892B982F991F86
S11327409927991F892B8F5F089581E0089580E868
S113275008950E948E138031C1F028F4823079F0FC
S1132760883079F006C0803431F0803831F080321E
S113277051F080E0089582E0089583E0089584E0B4
S1132780089585E0089586E0089581E00895CF9343
S1132790DF93EC019A01AB018881837F8883888170
S11327A08064888388818061888388818F7D888321
S11327B060E074E284EF90E00E94D51A822F0E94B8
S11327C0A9139881282F2370922B98839981869539
S11327D08695892B8983CC34D10589F460E283E220
S11327E090E00E94820B85B1806285B960E883E243
S11327F090E00E94820B85B18F7785B90FC0CC3AE7
S1132800D10561F48DB188608DB98AB180688AB9C7
S11328108EB188608EB98BB18F778BB9DF91CF91F0
S11328200895FC01628320E030E091812F5F3F4FE7
S113283099231CF021153105C1F7232B21F48FEFC7
S1132840FA0180830895892F807496FF05C08281E0
S1132850FA0180838EEF08959281FA01908308959E
S1132860FC018FEF828320E030E091812F5F3F4FA6
S113287099231CF021153105C1F7232B21F48FEF87
S1132880FB0180830895892F807496FF05C082819F
S1132890FB0180838EEF08959281FB01908308955C
S11328A0FC01628320E030E091812F5F3F4F992348
S11328B01CF021153105C1F7232B21F48FEFFA0108
S11328C080830895892F807496FF05C08281FA0160
S11328D080838EEF08959281FA0190830895862F64
S11328E090E0FC01E45FF109EC30F10508F064C00C
S11328F0EA59FF4F0C94F71A48E062E971E088EC5A
S113290090E00E94841A089544E06BE971E088EC39
S113291090E00E94841A089543E060EA71E088EC34
S113292090E00E94841A08954CE064EA71E088EC17
S113293090E00E94841A089545E061EB71E088EC10
S113294090E00E94841A089545E067EB71E088ECFA
S113295090E00E94841A089546E06DEB71E088ECE3
S113296090E00E94841A089546E064EC71E088ECDB
S113297090E00E94841A089546E06BEC71E088ECC4
S113298090E00E94841A08954AE062ED71E088ECB8
S113299090E00E94841A089546E06DED71E088ECA1
S11329A090E00E94841A089546E064EE71E088EC99
S11329B090E00E94841A08954BE06BEE71E088EC7D
S11329C090E00E94841A08953F924F925F926F9212
S11329D07F928F929F92AF92BF92CF92DF92EF92AB
S11329E0FF920F931F93CF93DF9300D000D01F92D9
S11329F0CDB7DEB785B18D7F85B962E083E290E023
S1132A000E94820B0E94501A5C0185B1826085B9D4
S1132A1012E39E012D5F3F4F69010F2EF3E0EF2E6D
S1132A20F12CF02D00E021E030E040E050E063E4E0
S1132A3088ED90E00E94F817082F1150882311F0B8
S1132A401111E7CF112311F140E0B50185E991E1BE
S1132A500E945E1A2D8190E001971F922F932CE023
S1132A6032E03F932F938A0D9B1D9F938F930E9477
S1132A70531B40E0B50188EC90E00E94841A0F904B
S1132A800F900F900F900F900F9020C040E0B50171
S1132A908FEA91E10E945E1A90E001971F920F93D2
S1132AA02CE032E03F932F938A0D9B1D9F938F93CD
S1132AB00E94531B40E0B50188EC90E00E94841A08
S1132AC00F900F900F900F900F900F9012E3CE0184
S1132AD003966C01EE24E394F12C01E021E030E054
S1132AE040E050E063E488ED90E00E94F817082F7E
S1132AF01150882311F01111EACF112311F140E094
S1132B00B50185E991E10E945E1A2B8190E001975D
S1132B101F922F932CE032E03F932F938A0D9B1D3D
S1132B209F938F930E94531B40E0B50188EC90E083
S1132B300E94841A0F900F900F900F900F900F9097
S1132B4020C040E0B5018FEA91E10E945E1A90E056
S1132B5001971F920F932CE032E03F932F938A0D3D
S1132B609B1D9F938F930E94531B40E0B50188ECFB
S1132B7090E00E94841A0F900F900F900F900F9086
S1132B800F9040E068E083E290E00E94870B8B8125
S1132B908C3A09F091C1612C712C812C912CF40197
S1132BA0EA5EFE4F5490F401E95EFE4FE491E9833E
S1132BB092E0890E911C2FEF5216C9F1EF3FB9F143
S1132BC012E3852D90E0A0E0B0E09E012F5F3F4F1F
S1132BD06901EE24E394F12C01E09C01AD0163E46E
S1132BE088ED90E00E946E18082F1150E1F440E047
S1132BF060E886E290E00E94870B1F920F9387EFB4
S1132C0091E09F938F93BF92AF920E94531B40E039
S1132C10B50188EC90E00E94841A0F900F900F90F9
S1132C200F900F900F90002311F01111CACF0111D2
S1132C3005C0112319F03FEF631A730A8FEF58127E
S1132C4003C089818F3F11F01111A9CF40E0B50174
S1132C5082E791E10E945E1A40E0B50188EC90E0C1
S1132C600E94841A40E0B50183E391E10E945E1A58
S1132C7090E001977F926F922CEF31E03F932F9376
S1132C808A0D9B1D9F938F930E94531B40E0B501B7
S1132C9088EC90E00E94841A40E060E18CE290E0CD
S1132CA00E94870B0F900F900F900F900F900F9032
S1132CB0612C712C812C912CF401EC51FF4F549018
S1132CC0F401EB51FF4FE491E98392E0890E911CEA
S1132CD02FEF5216E1F0EF3FD1F012E3852D90E093
S1132CE0A0E0B0E09E012F5F3F4F6901EE24E39422
S1132CF0F12C01E09C01AD0163E488ED90E00E94B9
S1132D00F817082F1150882311F01111E7CF011182
S1132D1005C0112319F03FEF631A730A8FEF58129D
S1132D2003C089818F3F29F0112319F0002309F48E
S1132D30C3CF40E0B5018EE491E10E945E1A40E009
S1132D40B50188EC90E00E94841A40E0B50183E369
S1132D5091E10E945E1A90E001977F926F922CEFAE
S1132D6031E03F932F938A0D9B1D9F938F930E9475
S1132D70531B40E0B50188EC90E00E94841A40E0C7
S1132D8060E880E290E00E94870B0F900F900F9014
S1132D900F900F900F90812C912C7DC0F401E25381
S1132DA0FE4E3490F401E454FE4EE491E98312E3C0
S1132DB0432C512C612C712C9E012F5F3F4F6901D4
S1132DC0EE24E394F12C01E0A301920163E488ED85
S1132DD090E00E94F817082F115031F440E060E8A9
S1132DE086E290E00E94870B002311F01111E0CFDE
S1132DF040E0B50182E291E10E945E1A298190E0EF
S1132E0001971F922F931F923F9225E032E03F9348
S1132E102F938A0D9B1D9F938F930E94531B40E019
S1132E20B50188EC90E00E94841ACE0103966C01EF
S1132E30EE24E394F12C01E0A301920163E488ED14
S1132E4090E00E94F817082F40E0B5018DE091E171
S1132E500E945E1A2B8190E001971F920F931F929C
S1132E602F931F923F9225E132E03F932F938A0DD7
S1132E709B1D9F938F930E94531B40E0B50188ECE8
S1132E8090E00E94841A9FEF891A990A0FB6F89469
S1132E90DEBF0FBECDBF32E18316910408F47ECFAE
S1132EA040E0B50184EF90E10E945E1A40E0B50174
S1132EB088EC90E00E94841A40E068E083E290E0AD
S1132EC00E94940B40E060E18CE290E00E94940B3D
S1132ED040E060E880E290E00E94940B802F0F9025
S1132EE00F900F900F900F90DF91CF911F910F9142
S1132EF0FF90EF90DF90CF90BF90AF909F908F9016
S1132F007F906F905F904F903F90089524E8FC016C
S1132F1024830895FC0184E98483948194FDFDCF86
S1132F20089524EAFC012483089524ECFC012483FD
S1132F300895CF92DF92EF92FF92CF93DF93EC014B
S1132F409A01AB0160E074E284EF90E00E94D51A2C
S1132F5069017A0180E1C81AD108E108F108C701C2
S1132F60B6012EEF31E040E050E00E94D51A211561
S1132F70310541055105A9F02430310541055105BC
S1132F80B0F02031310541055105B8F02034310548
S1132F904105510528F540E450E060E070E083E02D
S1132FA011C041E050E060E070E080E00BC044E01C
S1132FB050E060E070E081E005C040E150E060E096
S1132FC070E082E089839A01AB01220F331F441F12
S1132FD0551FC701B6010E94D51A288380E001C09D
S1132FE081E0DF91CF91FF90EF90DF90CF90089533
S1132FF0CF92DF92EF92FF921F93CF93DF93EC0176
S113300070E0660F771F162F11600E9491178C8154
S11330108823ECF78981887F883019F0803109F0A2
S113302052C01B8384E88C838C818823ECF78981CC
S1133030887F8034D9F581E0E816F10429F4CE01C3
S11330400E94861710E02AC0CE010E949517FACF7D
S11330508C818823ECF78981887F8035A9F481E00D
S1133060E81AF108F601E10FF11D8B8180831F5FDF
S113307081E0E816F10421F4CE010E9486170EC007
S1133080CE010E9495170AC0883541F481E0E81A00
S1133090F1088B81F601E10FF11D8083E114F10445
S11330A0B9F6CE010E948A1780E010C0883429F452
S11330B0CE010E948A1785E009C0883331F484E880
S11330C08C8380E003C084E001C080E0DF91CF9175
S11330D01F91FF90EF90DF90CF9008958F929F9271
S11330E0AF92BF92CF92DF92EF92FF920F931F9312
S11330F0CF93DF93EC0149015A01162F110F0E945F
S113310091178C818823ECF78981887F883019F0A6
S1133110803109F08EC01B8384E88C838C818823E2
S1133120ECF78981182F187F8981887F883109F00D
S113313079C028C0802F90E0821B91090197880FE5
S1133140991F880F991F880F991FB501A40104C006
S113315076956795579547958A95D2F74B8384E87A
S11331608C838C818823ECF78981887F803229F4D1
S1133170CE010E948A1785E063C0883309F45BC0DE
S11331802F5F01C020E02017A8F2E114F10429F414
S1133190CE010E948A1780E053C051E0E516F10485
S11331A021F4CE010E94951703C0CE010E94951709
S11331B01FEF1E0D2FC08C818823ECF78981887F37
S11331C08832A9F461E0E61AF108F601E10FF11D75
S11331D080818B831150E114F10429F4CE010E9403
S11331E08A1780E02DC0CE010E94951713C080334A
S11331F079F471E0E71AF1088B81F601E10FF11D12
S11332008083CE010E948A178C8184FDFDCF02C089
S1133210883399F0E114F10471F6CE010E948A1703
S113322080E00EC0CE010E948A17103241F485E07E
S113323007C084E005C081E003C081E001C081E0F3
S1133240DF91CF911F910F91FF90EF90DF90CF907E
S1133250BF90AF909F908F9008959F92AF92BF922E
S1133260CF92DF92EF92FF920F931F93CF93DF934E
S113327000D01F92CDB7DEB762E083E290E00E94F7
S1133280820B85B18D7F85B900C085B1826085B917
S11332900E94501A982E192F0E94531A19821A82CA
S11332A01B820F2EF4E6AF2EB12CF02DCE01019629
S11332B06C01E12CF12C01E021E030E040E050E031
S11332C063E488ED90E00E946E1891E0A91AB108B9
S11332D0882349F0A114B10449F70F2EF4E6AF2E68
S11332E0B12CF02D05C00F2EF4E6AF2EB12CF02D2D
S11332F0CE0101966C01EE24E394F12C00E020E071
S113330030E0A90163E488ED90E00E94F81791E0B1
S1133310A91AB108882319F0A114B10449F7AB28FC
S1133320D1F089811F928F938BE292E09F938F93C8
S11333301F939F920E94531B40EA692D712F88ECC2
S113334090E00E94841A0F900F900F900F900F90AE
S11333500F9080E001C083E00F900F900F90DF91F9
S1133360CF911F910F91FF90EF90DF90CF90BF907E
S1133370AF909F9008958230E1F028F4882349F0BB
S1133380813079F036C0843021F1D8F0853049F1AC
S113339030C047E062E472E088EC90E00E94841A56
S11333A0089548E06AE472E088EC90E00E94841A90
S11333B008954CE063E572E088EC90E00E94841A82
S11333C008954DE060E672E088EC90E00E94841A73
S11333D008954CE06EE672E088EC90E00E94841A56
S11333E008954DE06BE772E088EC90E00E94841A47
S11333F008954AE069E872E088EC90E00E94841A3B
S11334000895CF93DF93EC01DB01CA0180589B47F9
S1133410A14EBF4F880F991FAA1FBB1F880F991F6A
S1133420AA1FBB1F880F991FAA1FBB1F440F551F3C
S1133430661F771F440F551F661F771F9A01AB0144
S1133440220F331F441F551F220F331F441F551FC4
S1133450BC01CD010E94D51A215031093D832C8332
S1133460188286E08A8388E18983DF91CF91089569
S1133470FC0120E030E090812F5F3F4F95FD03C0B9
S113348021153105C1F7232B19F0668380E00895D7
S113349080E90895FC0190819923ECF786810895D1
S11334A084E992E0089580E006C0E82FF0E0EC564D
S11334B0FD4F10828F5F8035C0F30895CF93DF9363
S11334C0DC0141111AC0242F30E0FD01E20FF31F8B
S11334D0E491EB01C20FD31FE8834F5FE111F3CFF7
S11334E00FC0292F30E0FD01E20FF31FE491EB013F
S11334F0C20FD31FE8839F5F01C090E0941788F345
S1133500842FDF91CF910895EF92FF920F931F9331
S1133510CF93DF937C018B01D42F411118C0FB01A1
S11335206081C0E008C0C7010E94381ACF5FF8016B
S1133530EC0FF11D60816111F6CF0CC0F801EC0FA6
S1133540F11D6081C7010E94381ACF5F01C0C0E03D
S1133550CD17A0F3DF91CF911F910F91FF90EF90C2
S11335600895DB018F939F930E94FD1ABF91AF9141
S1133570A29F800D911DA39F900DB29F900D1124C9
S11335800895AA1BBB1B51E107C0AA1FBB1FA617A6
S1133590B70710F0A61BB70B881F991F5A95A9F7F8
S11335A080959095BC01CD010895A1E21A2EAA1B25
S11335B0BB1BFD010DC0AA1FBB1FEE1FFF1FA217DF
S11335C0B307E407F50720F0A21BB30BE40BF50BDC
S11335D0661F771F881F991F1A9469F76095709565
S11335E0809590959B01AC01BD01CF010895EE0F2C
S11335F0FF1F0590F491E02D09940E94081BA59FDC
S1133600900DB49F900DA49F800D911D11240895D9
S1133610A29FB001B39FC001A39F700D811D11240F
S1133620911DB29F700D811D1124911D08951F934A
S1133630FC0199278827BC01E89411911032E9F321
S1133640193010F01E30C8F31B3251F01D3249F40A
S1133650689406C00E943E1B610F711D811D911D5F
S1133660119110531A30B0F33EF4909580957095F3
S113367061957F4F8F4F9F4F1F910895592F482F6A
S1133680372F262F660F771F881F991F660F771F06
S1133690881F991F620F731F841F951F660F771F62
S11336A0881F991F0895AEE0B0E0E9E5FBE10C94B2
S11336B0141E0D891E8986E08C831A8309838FEF7B
S11336C09FE79E838D83AE01475E5F4F6F89788D40
S11336D0CE0101960E94751BEF81F885E00FF11F62
S11336E010822E96E4E00C94301EABE0B0E0EBE7E1
S11336F0FBE10C94061E6C017B018A01FC0117821C
S11337001682838181FFCCC1CE0101963C01F60172
S11337109381F70193FD859193FF81917F01882324
S113372009F4BAC1853239F493FD859193FF8191EF
S11337307F01853229F4B60190E00E946C1DE7CF29
S1133740912C212C312CFFE1F315D8F08B3279F038
S113375038F4803279F08332A1F4232D20611DC026
S11337608D3261F0803369F4232D216016C0832DDE
S11337708260382EE32DE4603E2E2AC0F32DF860DB
S11337801DC037FC2DC020ED280F2A3040F08E32AA
S1133790B9F436FC81C1232D2064322E19C036FEC3
S11337A006C08AE0989E200D1124922E11C0EAE0F2
S11337B02E9E200D1124222EF32DF0623F2E08C0E0
S11337C08C3621F4832D8068382E02C0883641F46B
S11337D0F70193FD859193FF81917F018111B3CF0F
S11337E0982F9F7D9554933028F40C5F1F4F9FE3CF
S11337F099830DC0833631F0833771F0833509F036
S113380059C021C0F801808189830E5F1F4F88242D
S11338108394912C530113C02801F2E04F0E511CE4
S1133820F801A080B18036FE03C0692D70E002C0AB
S11338306FEF7FEFC5010E94611D4C018201F32DE2
S1133840FF773F2E16C0280122E0420E511CF801DA
S1133850A080B18036FE03C0692D70E002C06FEF16
S11338607FEFC5010E94561D4C01F32DF0683F2ED9
S1133870820133FC1BC0822D90E088169906B0F4B7
S1133880B60180E290E00E946C1D2A94F4CFF50109
S113389037FC859137FE81915F01B60190E00E946B
S11338A06C1D21102A9421E0821A9108811491043C
S11338B071F7E8C0843611F0893641F5F80137FE16
S11338C007C060817181828193810C5F1F4F08C0A2
S11338D060817181072E000C880B990B0E5F1F4FBE
S11338E0F32DFF763F2E97FF09C090958095709534
S11338F061957F4F8F4F9F4FF0683F2E2AE030E055
S1133900A3010E94A81D882E861845C0853731F46E
S1133910232D2F7EB22E2AE030E025C0932D997FEF
S1133920B92E8F36C1F018F4883579F0B5C08037D8
S113393019F0883721F0B0C0E92FE061BE2EB4FE43
S11339400DC0FB2DF460BF2E09C034FE0AC0292F20
S11339502660B22E06C028E030E005C020E130E049
S113396002C020E132E0F801B7FE07C06081718136
S1133970828193810C5F1F4F06C06081718180E05A
S113398090E00E5F1F4FA3010E94A81D882E861889
S1133990FB2DFF773F2E36FE0DC0232D2E7FA22E4A
S11339A0891458F434FE0BC032FC09C0832D8E7E7A
S11339B0A82E05C0B82CA32C03C0B82C01C0B92C68
S11339C0A4FE0FC0FE01E80DF11D8081803321F4B7
S11339D09A2D997EA92E09C0A2FE06C0B394B39471
S11339E004C08A2D867809F0B394A3FC11C0A0FE0C
S11339F006C0B21488F4280C922C9B180EC0B21482
S1133A0060F4B60180E290E00E946C1DB394F7CF9D
S1133A10B21418F42B1802C0982C212CA4FE10C048
S1133A20B60180E390E00E946C1DA2FE17C0A1FCC9
S1133A3003C088E790E002C088E590E0B6010CC0BE
S1133A408A2D867859F0A1FE02C08BE201C080E283
S1133A50A7FC8DE2B60190E00E946C1D891438F435
S1133A60B60180E390E00E946C1D9A94F7CF8A948B
S1133A70F301E80DF11D8081B60190E00E946C1DF8
S1133A808110F5CF222009F442CEB60180E290E005
S1133A900E946C1D2A94F6CFF6018681978102C09C
S1133AA08FEF9FEF2B96E2E10C94221EFC01059010
S1133AB0615070400110D8F7809590958E0F9F1F2C
S1133AC00895FC016150704001900110D8F7809571
S1133AD090958E0F9F1F08950F931F93CF93DF939D
S1133AE0FB01238121FD03C08FEF9FEF2CC022FF38
S1133AF016C046815781248135814217530744F407
S1133B00A081B1819D012F5F3F4F318320838C932E
S1133B10268137812F5F3F4F3783268314C08B0163
S1133B20EC01FB010084F185E02D0995892BE1F678
S1133B30D80116968D919C911797019617969C9390
S1133B408E931697CE01DF91CF911F910F91089517
S1133B50FA01AA27283051F1203181F1E8946F93BA
S1133B606E7F6E5F7F4F8F4F9F4FAF4FB1E03ED060
S1133B70B4E03CD0670F781F891F9A1FA11D680FFE
S1133B80791F8A1F911DA11D6A0F711D811D911D31
S1133B90A11D20D009F468943F912AE0269F1124A6
S1133BA03019305D3193DEF6CF010895462F47700A
S1133BB0405D4193B3E00FD0C9F7F6CF462F4F7065
S1133BC0405D4A3318F0495D31FD4052419302D0C3
S1133BD0A9F7EACFB4E0A695979587957795679569
S1133BE0BA95C9F700976105710508959B01AC0169
S1133BF00A2E06945795479537952795BA95C9F790
S1133C00620F731F841F951FA01D08952F923F926A
S1133C104F925F926F927F928F929F92AF92BF92D8
S1133C20CF92DF92EF92FF920F931F93CF93DF9384
S1133C30CDB7DEB7CA1BDB0B0FB6F894DEBF0FBEE1
S1133C40CDBF09942A88398848885F846E847D842E
S1133C508C849B84AA84B984C884DF80EE80FD8030
S1133C600C811B81AA81B981CE0FD11D0FB6F894A6
S1113C70DEBF0FBECDBFED010895F894FFCF67
S1133C7E2535642E20005B4449525D0D0A0074778D
S1133C8E695F696E69745F6661696C0A000A454E04
S1133C9E440A00456E747279204E756D6265723AEF
S1133CAE0A00496E76616C696420456E74727920DF
S1133CBE4E756D6265722E2050726F766964652042
S1133CCE61206E6577206F6E653A0A0025702000BC
S1133CDE307825342E345820200025322E325820A8
S1133CEE00456E746572203020746F2073746F708B
S1133CFE2C203120746F20636F6E74696E75653A73
S1133D0E0A0074696D656F75740A005350490A0090
S1133D1E53440A00564F4C54414745212121210A50
S1133D2E00434D44300A00434D44380A00434D4489
S1133D3E35380A00434D4435350A00434D44343179
S1133D4E0A00434D44343154494D450A00544F4BF7
S1133D5E454E0A00434D4431360A00696D706F7347
S1133D6E7369626C650A0025750A0D0025322E32C0
S1133D7E75200A0D0025322E3258202025322E327F
S1133D8E58200A0D0025322E3258202025322E328C
S1133D9E582025322E3258200A0D0052656365696B
S1133DAE7665642056616C7565203D202532780A4F
S1133DBE0D005457495F4F4B0A005457495F455203
S1133DCE520A005457495F4552525F54574F0A00E6
S1133DDE5457495F4552525F54494D450A00545752
S1133DEE495F4552525F4255530A005457495F4545
S1133DFE52525F4E41434B0A005457495F4F544849
S1073E0E45520A000B
S9030000FC
